{
  "_format": "hh-sol-artifact-1",
  "contractName": "VotingContract",
  "sourceName": "contracts/VotingContract.sol",
  "abi": [
    {
      "inputs": [],
      "stateMutability": "nonpayable",
      "type": "constructor"
    },
    {
      "anonymous": false,
      "inputs": [
        {
          "indexed": false,
          "internalType": "uint256",
          "name": "candidateId",
          "type": "uint256"
        },
        {
          "indexed": false,
          "internalType": "string",
          "name": "age",
          "type": "string"
        },
        {
          "indexed": false,
          "internalType": "string",
          "name": "name",
          "type": "string"
        },
        {
          "indexed": false,
          "internalType": "string",
          "name": "image",
          "type": "string"
        },
        {
          "indexed": false,
          "internalType": "uint256",
          "name": "voteCount",
          "type": "uint256"
        },
        {
          "indexed": false,
          "internalType": "address",
          "name": "_address",
          "type": "address"
        },
        {
          "indexed": false,
          "internalType": "string",
          "name": "ipfs",
          "type": "string"
        }
      ],
      "name": "CandidateCreate",
      "type": "event"
    },
    {
      "anonymous": false,
      "inputs": [
        {
          "indexed": false,
          "internalType": "uint256",
          "name": "voter_id",
          "type": "uint256"
        },
        {
          "indexed": false,
          "internalType": "string",
          "name": "voter_name",
          "type": "string"
        },
        {
          "indexed": false,
          "internalType": "string",
          "name": "voter_image",
          "type": "string"
        },
        {
          "indexed": false,
          "internalType": "address",
          "name": "voter_address",
          "type": "address"
        },
        {
          "indexed": false,
          "internalType": "uint256",
          "name": "voter_allowed",
          "type": "uint256"
        },
        {
          "indexed": false,
          "internalType": "bool",
          "name": "voter_voted",
          "type": "bool"
        },
        {
          "indexed": false,
          "internalType": "uint256",
          "name": "voter_vote",
          "type": "uint256"
        },
        {
          "indexed": false,
          "internalType": "string",
          "name": "voter_ipfs",
          "type": "string"
        }
      ],
      "name": "VoterCreated",
      "type": "event"
    },
    {
      "inputs": [],
      "name": "_candidateId",
      "outputs": [
        {
          "internalType": "uint256",
          "name": "_value",
          "type": "uint256"
        }
      ],
      "stateMutability": "view",
      "type": "function"
    },
    {
      "inputs": [],
      "name": "_voterId",
      "outputs": [
        {
          "internalType": "uint256",
          "name": "_value",
          "type": "uint256"
        }
      ],
      "stateMutability": "view",
      "type": "function"
    },
    {
      "inputs": [
        {
          "internalType": "uint256",
          "name": "",
          "type": "uint256"
        }
      ],
      "name": "candidateAddress",
      "outputs": [
        {
          "internalType": "address",
          "name": "",
          "type": "address"
        }
      ],
      "stateMutability": "view",
      "type": "function"
    },
    {
      "inputs": [
        {
          "internalType": "address",
          "name": "",
          "type": "address"
        }
      ],
      "name": "candidates",
      "outputs": [
        {
          "internalType": "uint256",
          "name": "candidateId",
          "type": "uint256"
        },
        {
          "internalType": "string",
          "name": "age",
          "type": "string"
        },
        {
          "internalType": "string",
          "name": "name",
          "type": "string"
        },
        {
          "internalType": "string",
          "name": "image",
          "type": "string"
        },
        {
          "internalType": "uint256",
          "name": "voteCount",
          "type": "uint256"
        },
        {
          "internalType": "address",
          "name": "_address",
          "type": "address"
        },
        {
          "internalType": "string",
          "name": "ipfs",
          "type": "string"
        }
      ],
      "stateMutability": "view",
      "type": "function"
    },
    {
      "inputs": [],
      "name": "getCandidate",
      "outputs": [
        {
          "internalType": "address[]",
          "name": "",
          "type": "address[]"
        }
      ],
      "stateMutability": "view",
      "type": "function"
    },
    {
      "inputs": [],
      "name": "getCandidateLength",
      "outputs": [
        {
          "internalType": "uint256",
          "name": "",
          "type": "uint256"
        }
      ],
      "stateMutability": "view",
      "type": "function"
    },
    {
      "inputs": [
        {
          "internalType": "address",
          "name": "_address",
          "type": "address"
        }
      ],
      "name": "getCandidatedata",
      "outputs": [
        {
          "internalType": "string",
          "name": "",
          "type": "string"
        },
        {
          "internalType": "string",
          "name": "",
          "type": "string"
        },
        {
          "internalType": "uint256",
          "name": "",
          "type": "uint256"
        },
        {
          "internalType": "string",
          "name": "",
          "type": "string"
        },
        {
          "internalType": "uint256",
          "name": "",
          "type": "uint256"
        },
        {
          "internalType": "string",
          "name": "",
          "type": "string"
        },
        {
          "internalType": "address",
          "name": "",
          "type": "address"
        }
      ],
      "stateMutability": "view",
      "type": "function"
    },
    {
      "inputs": [],
      "name": "getVotedVoterList",
      "outputs": [
        {
          "internalType": "address[]",
          "name": "",
          "type": "address[]"
        }
      ],
      "stateMutability": "view",
      "type": "function"
    },
    {
      "inputs": [],
      "name": "getVoterLength",
      "outputs": [
        {
          "internalType": "uint256",
          "name": "",
          "type": "uint256"
        }
      ],
      "stateMutability": "view",
      "type": "function"
    },
    {
      "inputs": [],
      "name": "getVoterList",
      "outputs": [
        {
          "internalType": "address[]",
          "name": "",
          "type": "address[]"
        }
      ],
      "stateMutability": "view",
      "type": "function"
    },
    {
      "inputs": [
        {
          "internalType": "address",
          "name": "_address",
          "type": "address"
        }
      ],
      "name": "getVoterdata",
      "outputs": [
        {
          "internalType": "uint256",
          "name": "",
          "type": "uint256"
        },
        {
          "internalType": "string",
          "name": "",
          "type": "string"
        },
        {
          "internalType": "string",
          "name": "",
          "type": "string"
        },
        {
          "internalType": "address",
          "name": "",
          "type": "address"
        },
        {
          "internalType": "string",
          "name": "",
          "type": "string"
        },
        {
          "internalType": "uint256",
          "name": "",
          "type": "uint256"
        },
        {
          "internalType": "bool",
          "name": "",
          "type": "bool"
        }
      ],
      "stateMutability": "view",
      "type": "function"
    },
    {
      "inputs": [
        {
          "internalType": "address",
          "name": "_address",
          "type": "address"
        },
        {
          "internalType": "string",
          "name": "_age",
          "type": "string"
        },
        {
          "internalType": "string",
          "name": "_name",
          "type": "string"
        },
        {
          "internalType": "string",
          "name": "_image",
          "type": "string"
        },
        {
          "internalType": "string",
          "name": "_ipfs",
          "type": "string"
        }
      ],
      "name": "setCandidate",
      "outputs": [],
      "stateMutability": "nonpayable",
      "type": "function"
    },
    {
      "inputs": [],
      "name": "voitingOrganizer",
      "outputs": [
        {
          "internalType": "address",
          "name": "",
          "type": "address"
        }
      ],
      "stateMutability": "view",
      "type": "function"
    },
    {
      "inputs": [
        {
          "internalType": "address",
          "name": "_candidateAddress",
          "type": "address"
        },
        {
          "internalType": "uint256",
          "name": "_candidateVoteId",
          "type": "uint256"
        }
      ],
      "name": "vote",
      "outputs": [],
      "stateMutability": "nonpayable",
      "type": "function"
    },
    {
      "inputs": [
        {
          "internalType": "uint256",
          "name": "",
          "type": "uint256"
        }
      ],
      "name": "votedVoters",
      "outputs": [
        {
          "internalType": "address",
          "name": "",
          "type": "address"
        }
      ],
      "stateMutability": "view",
      "type": "function"
    },
    {
      "inputs": [
        {
          "internalType": "uint256",
          "name": "",
          "type": "uint256"
        }
      ],
      "name": "voterAddress",
      "outputs": [
        {
          "internalType": "address",
          "name": "",
          "type": "address"
        }
      ],
      "stateMutability": "view",
      "type": "function"
    },
    {
      "inputs": [
        {
          "internalType": "address",
          "name": "_address",
          "type": "address"
        },
        {
          "internalType": "string",
          "name": "_name",
          "type": "string"
        },
        {
          "internalType": "string",
          "name": "_image",
          "type": "string"
        },
        {
          "internalType": "string",
          "name": "_ipfs",
          "type": "string"
        }
      ],
      "name": "voterRight",
      "outputs": [],
      "stateMutability": "nonpayable",
      "type": "function"
    },
    {
      "inputs": [
        {
          "internalType": "address",
          "name": "",
          "type": "address"
        }
      ],
      "name": "voters",
      "outputs": [
        {
          "internalType": "uint256",
          "name": "voter_id",
          "type": "uint256"
        },
        {
          "internalType": "string",
          "name": "voter_name",
          "type": "string"
        },
        {
          "internalType": "string",
          "name": "voter_image",
          "type": "string"
        },
        {
          "internalType": "address",
          "name": "voter_address",
          "type": "address"
        },
        {
          "internalType": "uint256",
          "name": "voter_allowed",
          "type": "uint256"
        },
        {
          "internalType": "bool",
          "name": "voter_voted",
          "type": "bool"
        },
        {
          "internalType": "uint256",
          "name": "voter_vote",
          "type": "uint256"
        },
        {
          "internalType": "string",
          "name": "voter_ipfs",
          "type": "string"
        }
      ],
      "stateMutability": "view",
      "type": "function"
    }
  ],
  "bytecode": "0x608060405234801561001057600080fd5b5033600260006101000a81548173ffffffffffffffffffffffffffffffffffffffff021916908373ffffffffffffffffffffffffffffffffffffffff160217905550612598806100616000396000f3fe608060405234801561001057600080fd5b50600436106101165760003560e01c8063a3ec138d116100a2578063b9be315211610071578063b9be31521461031c578063c5036fd41461033a578063c91ec71214610370578063da6bcbbd1461038c578063f7522a83146103aa57610116565b8063a3ec138d14610273578063a7388967146102aa578063b28d92ae146102c8578063b63c82ca146102e657610116565b80635f74bbde116100e95780635f74bbde146101b557806370218b85146101d15780637831ffb3146101ef5780638ab66a901461021f5780638e9456851461025557610116565b80630361419e1461011b57806305ad45a4146101375780633a88251a146101555780635d55f2de14610185575b600080fd5b61013560048036038101906101309190611c52565b6103c8565b005b61013f610656565b60405161014c9190611d26565b60405180910390f35b61016f600480360381019061016a9190611d6d565b610663565b60405161017c9190611da9565b60405180910390f35b61019f600480360381019061019a9190611d6d565b6106a2565b6040516101ac9190611da9565b60405180910390f35b6101cf60048036038101906101ca9190611dc4565b6106e1565b005b6101d96108a9565b6040516101e69190611ec2565b60405180910390f35b61020960048036038101906102049190611d6d565b610937565b6040516102169190611da9565b60405180910390f35b61023960048036038101906102349190611ee4565b610976565b60405161024c9796959493929190611f99565b60405180910390f35b61025d610bf8565b60405161026a9190611ec2565b60405180910390f35b61028d60048036038101906102889190611ee4565b610c86565b6040516102a198979695949392919061203f565b60405180910390f35b6102b2610e93565b6040516102bf9190611d26565b60405180910390f35b6102d0610e9f565b6040516102dd9190611ec2565b60405180910390f35b61030060048036038101906102fb9190611ee4565b610f2d565b60405161031397969594939291906120d2565b60405180910390f35b610324611374565b6040516103319190611d26565b60405180910390f35b610354600480360381019061034f9190611ee4565b611380565b604051610367979695949392919061215d565b60405180910390f35b61038a600480360381019061038591906121e1565b611748565b005b6103946119a0565b6040516103a19190611da9565b60405180910390f35b6103b26119c6565b6040516103bf9190611d26565b60405180910390f35b3373ffffffffffffffffffffffffffffffffffffffff16600260009054906101000a900473ffffffffffffffffffffffffffffffffffffffff1673ffffffffffffffffffffffffffffffffffffffff1614610458576040517f08c379a000000000000000000000000000000000000000000000000000000000815260040161044f90612318565b60405180910390fd5b61046260006119d3565b600061046e60006119e9565b90506000600760008773ffffffffffffffffffffffffffffffffffffffff1673ffffffffffffffffffffffffffffffffffffffff168152602001908152602001600020905060008160040154146104c457600080fd5b60018160040181905550848160010190805190602001906104e69291906119f7565b50838160020190805190602001906104ff9291906119f7565b50858160030160006101000a81548173ffffffffffffffffffffffffffffffffffffffff021916908373ffffffffffffffffffffffffffffffffffffffff1602179055508181600001819055506103e8816006018190555060008160050160006101000a81548160ff0219169083151502179055508281600701908051906020019061058c9291906119f7565b506006869080600181540180825580915050600190039060005260206000200160009091909190916101000a81548173ffffffffffffffffffffffffffffffffffffffff021916908373ffffffffffffffffffffffffffffffffffffffff1602179055507ff5f39971dd62d9929e3a9feaa6bb77fe7c7da0001babff8a65a7e51ad0201c198286868985600401548660050160009054906101000a900460ff1687600601548a60405161064698979695949392919061203f565b60405180910390a1505050505050565b6000600680549050905090565b6003818154811061067357600080fd5b906000526020600020016000915054906101000a900473ffffffffffffffffffffffffffffffffffffffff1681565b600681815481106106b257600080fd5b906000526020600020016000915054906101000a900473ffffffffffffffffffffffffffffffffffffffff1681565b6000600760003373ffffffffffffffffffffffffffffffffffffffff1673ffffffffffffffffffffffffffffffffffffffff16815260200190815260200160002090508060050160009054906101000a900460ff1615610776576040517f08c379a000000000000000000000000000000000000000000000000000000000815260040161076d90612384565b60405180910390fd5b6000816004015414156107be576040517f08c379a00000000000000000000000000000000000000000000000000000000081526004016107b5906123f0565b60405180910390fd5b60018160050160006101000a81548160ff0219169083151502179055508181600601819055506005339080600181540180825580915050600190039060005260206000200160009091909190916101000a81548173ffffffffffffffffffffffffffffffffffffffff021916908373ffffffffffffffffffffffffffffffffffffffff1602179055508060040154600460008573ffffffffffffffffffffffffffffffffffffffff1673ffffffffffffffffffffffffffffffffffffffff168152602001908152602001600020600401600082825461089d919061243f565b92505081905550505050565b6060600380548060200260200160405190810160405280929190818152602001828054801561092d57602002820191906000526020600020905b8160009054906101000a900473ffffffffffffffffffffffffffffffffffffffff1673ffffffffffffffffffffffffffffffffffffffff16815260200190600101908083116108e3575b5050505050905090565b6005818154811061094757600080fd5b906000526020600020016000915054906101000a900473ffffffffffffffffffffffffffffffffffffffff1681565b600460205280600052604060002060009150905080600001549080600101805461099f906124c4565b80601f01602080910402602001604051908101604052809291908181526020018280546109cb906124c4565b8015610a185780601f106109ed57610100808354040283529160200191610a18565b820191906000526020600020905b8154815290600101906020018083116109fb57829003601f168201915b505050505090806002018054610a2d906124c4565b80601f0160208091040260200160405190810160405280929190818152602001828054610a59906124c4565b8015610aa65780601f10610a7b57610100808354040283529160200191610aa6565b820191906000526020600020905b815481529060010190602001808311610a8957829003601f168201915b505050505090806003018054610abb906124c4565b80601f0160208091040260200160405190810160405280929190818152602001828054610ae7906124c4565b8015610b345780601f10610b0957610100808354040283529160200191610b34565b820191906000526020600020905b815481529060010190602001808311610b1757829003601f168201915b5050505050908060040154908060050160009054906101000a900473ffffffffffffffffffffffffffffffffffffffff1690806006018054610b75906124c4565b80601f0160208091040260200160405190810160405280929190818152602001828054610ba1906124c4565b8015610bee5780601f10610bc357610100808354040283529160200191610bee565b820191906000526020600020905b815481529060010190602001808311610bd157829003601f168201915b5050505050905087565b60606005805480602002602001604051908101604052809291908181526020018280548015610c7c57602002820191906000526020600020905b8160009054906101000a900473ffffffffffffffffffffffffffffffffffffffff1673ffffffffffffffffffffffffffffffffffffffff1681526020019060010190808311610c32575b5050505050905090565b6007602052806000526040600020600091509050806000015490806001018054610caf906124c4565b80601f0160208091040260200160405190810160405280929190818152602001828054610cdb906124c4565b8015610d285780601f10610cfd57610100808354040283529160200191610d28565b820191906000526020600020905b815481529060010190602001808311610d0b57829003601f168201915b505050505090806002018054610d3d906124c4565b80601f0160208091040260200160405190810160405280929190818152602001828054610d69906124c4565b8015610db65780601f10610d8b57610100808354040283529160200191610db6565b820191906000526020600020905b815481529060010190602001808311610d9957829003601f168201915b5050505050908060030160009054906101000a900473ffffffffffffffffffffffffffffffffffffffff16908060040154908060050160009054906101000a900460ff1690806006015490806007018054610e10906124c4565b80601f0160208091040260200160405190810160405280929190818152602001828054610e3c906124c4565b8015610e895780601f10610e5e57610100808354040283529160200191610e89565b820191906000526020600020905b815481529060010190602001808311610e6c57829003601f168201915b5050505050905088565b60018060000154905081565b60606006805480602002602001604051908101604052809291908181526020018280548015610f2357602002820191906000526020600020905b8160009054906101000a900473ffffffffffffffffffffffffffffffffffffffff1673ffffffffffffffffffffffffffffffffffffffff1681526020019060010190808311610ed9575b5050505050905090565b60608060006060600060606000600460008973ffffffffffffffffffffffffffffffffffffffff1673ffffffffffffffffffffffffffffffffffffffff168152602001908152602001600020600101600460008a73ffffffffffffffffffffffffffffffffffffffff1673ffffffffffffffffffffffffffffffffffffffff168152602001908152602001600020600201600460008b73ffffffffffffffffffffffffffffffffffffffff1673ffffffffffffffffffffffffffffffffffffffff16815260200190815260200160002060000154600460008c73ffffffffffffffffffffffffffffffffffffffff1673ffffffffffffffffffffffffffffffffffffffff168152602001908152602001600020600301600460008d73ffffffffffffffffffffffffffffffffffffffff1673ffffffffffffffffffffffffffffffffffffffff16815260200190815260200160002060040154600460008e73ffffffffffffffffffffffffffffffffffffffff1673ffffffffffffffffffffffffffffffffffffffff168152602001908152602001600020600601600460008f73ffffffffffffffffffffffffffffffffffffffff1673ffffffffffffffffffffffffffffffffffffffff16815260200190815260200160002060050160009054906101000a900473ffffffffffffffffffffffffffffffffffffffff16868054611137906124c4565b80601f0160208091040260200160405190810160405280929190818152602001828054611163906124c4565b80156111b05780601f10611185576101008083540402835291602001916111b0565b820191906000526020600020905b81548152906001019060200180831161119357829003601f168201915b505050505096508580546111c3906124c4565b80601f01602080910402602001604051908101604052809291908181526020018280546111ef906124c4565b801561123c5780601f106112115761010080835404028352916020019161123c565b820191906000526020600020905b81548152906001019060200180831161121f57829003601f168201915b5050505050955083805461124f906124c4565b80601f016020809104026020016040519081016040528092919081815260200182805461127b906124c4565b80156112c85780601f1061129d576101008083540402835291602001916112c8565b820191906000526020600020905b8154815290600101906020018083116112ab57829003601f168201915b505050505093508180546112db906124c4565b80601f0160208091040260200160405190810160405280929190818152602001828054611307906124c4565b80156113545780601f1061132957610100808354040283529160200191611354565b820191906000526020600020905b81548152906001019060200180831161133757829003601f168201915b505050505091509650965096509650965096509650919395979092949650565b60008060000154905081565b600060608060006060600080600760008973ffffffffffffffffffffffffffffffffffffffff1673ffffffffffffffffffffffffffffffffffffffff16815260200190815260200160002060000154600760008a73ffffffffffffffffffffffffffffffffffffffff1673ffffffffffffffffffffffffffffffffffffffff168152602001908152602001600020600101600760008b73ffffffffffffffffffffffffffffffffffffffff1673ffffffffffffffffffffffffffffffffffffffff168152602001908152602001600020600201600760008c73ffffffffffffffffffffffffffffffffffffffff1673ffffffffffffffffffffffffffffffffffffffff16815260200190815260200160002060030160009054906101000a900473ffffffffffffffffffffffffffffffffffffffff16600760008d73ffffffffffffffffffffffffffffffffffffffff1673ffffffffffffffffffffffffffffffffffffffff168152602001908152602001600020600701600760008e73ffffffffffffffffffffffffffffffffffffffff1673ffffffffffffffffffffffffffffffffffffffff16815260200190815260200160002060040154600760008f73ffffffffffffffffffffffffffffffffffffffff1673ffffffffffffffffffffffffffffffffffffffff16815260200190815260200160002060050160009054906101000a900460ff16858054611597906124c4565b80601f01602080910402602001604051908101604052809291908181526020018280546115c3906124c4565b80156116105780601f106115e557610100808354040283529160200191611610565b820191906000526020600020905b8154815290600101906020018083116115f357829003601f168201915b50505050509550848054611623906124c4565b80601f016020809104026020016040519081016040528092919081815260200182805461164f906124c4565b801561169c5780601f106116715761010080835404028352916020019161169c565b820191906000526020600020905b81548152906001019060200180831161167f57829003601f168201915b505050505094508280546116af906124c4565b80601f01602080910402602001604051908101604052809291908181526020018280546116db906124c4565b80156117285780601f106116fd57610100808354040283529160200191611728565b820191906000526020600020905b81548152906001019060200180831161170b57829003601f168201915b505050505092509650965096509650965096509650919395979092949650565b3373ffffffffffffffffffffffffffffffffffffffff16600260009054906101000a900473ffffffffffffffffffffffffffffffffffffffff1673ffffffffffffffffffffffffffffffffffffffff16146117d8576040517f08c379a00000000000000000000000000000000000000000000000000000000081526004016117cf90612542565b60405180910390fd5b6117e260016119d3565b60006117ee60016119e9565b90506000600460008873ffffffffffffffffffffffffffffffffffffffff1673ffffffffffffffffffffffffffffffffffffffff16815260200190815260200160002090508581600101908051906020019061184b9291906119f7565b50848160020190805190602001906118649291906119f7565b50818160000181905550838160030190805190602001906118869291906119f7565b5060008160040181905550868160050160006101000a81548173ffffffffffffffffffffffffffffffffffffffff021916908373ffffffffffffffffffffffffffffffffffffffff160217905550828160060190805190602001906118ec9291906119f7565b506003879080600181540180825580915050600190039060005260206000200160009091909190916101000a81548173ffffffffffffffffffffffffffffffffffffffff021916908373ffffffffffffffffffffffffffffffffffffffff1602179055507fd297f12b256bb8485a6013fb5e302017018123e99a0ebb20756c09e1707b4b908287878785600401548c8960405161198f9796959493929190611f99565b60405180910390a150505050505050565b600260009054906101000a900473ffffffffffffffffffffffffffffffffffffffff1681565b6000600380549050905090565b6001816000016000828254019250508190555050565b600081600001549050919050565b828054611a03906124c4565b90600052602060002090601f016020900481019282611a255760008555611a6c565b82601f10611a3e57805160ff1916838001178555611a6c565b82800160010185558215611a6c579182015b82811115611a6b578251825591602001919060010190611a50565b5b509050611a799190611a7d565b5090565b5b80821115611a96576000816000905550600101611a7e565b5090565b6000604051905090565b600080fd5b600080fd5b600073ffffffffffffffffffffffffffffffffffffffff82169050919050565b6000611ad982611aae565b9050919050565b611ae981611ace565b8114611af457600080fd5b50565b600081359050611b0681611ae0565b92915050565b600080fd5b600080fd5b6000601f19601f8301169050919050565b7f4e487b7100000000000000000000000000000000000000000000000000000000600052604160045260246000fd5b611b5f82611b16565b810181811067ffffffffffffffff82111715611b7e57611b7d611b27565b5b80604052505050565b6000611b91611a9a565b9050611b9d8282611b56565b919050565b600067ffffffffffffffff821115611bbd57611bbc611b27565b5b611bc682611b16565b9050602081019050919050565b82818337600083830152505050565b6000611bf5611bf084611ba2565b611b87565b905082815260208101848484011115611c1157611c10611b11565b5b611c1c848285611bd3565b509392505050565b600082601f830112611c3957611c38611b0c565b5b8135611c49848260208601611be2565b91505092915050565b60008060008060808587031215611c6c57611c6b611aa4565b5b6000611c7a87828801611af7565b945050602085013567ffffffffffffffff811115611c9b57611c9a611aa9565b5b611ca787828801611c24565b935050604085013567ffffffffffffffff811115611cc857611cc7611aa9565b5b611cd487828801611c24565b925050606085013567ffffffffffffffff811115611cf557611cf4611aa9565b5b611d0187828801611c24565b91505092959194509250565b6000819050919050565b611d2081611d0d565b82525050565b6000602082019050611d3b6000830184611d17565b92915050565b611d4a81611d0d565b8114611d5557600080fd5b50565b600081359050611d6781611d41565b92915050565b600060208284031215611d8357611d82611aa4565b5b6000611d9184828501611d58565b91505092915050565b611da381611ace565b82525050565b6000602082019050611dbe6000830184611d9a565b92915050565b60008060408385031215611ddb57611dda611aa4565b5b6000611de985828601611af7565b9250506020611dfa85828601611d58565b9150509250929050565b600081519050919050565b600082825260208201905092915050565b6000819050602082019050919050565b611e3981611ace565b82525050565b6000611e4b8383611e30565b60208301905092915050565b6000602082019050919050565b6000611e6f82611e04565b611e798185611e0f565b9350611e8483611e20565b8060005b83811015611eb5578151611e9c8882611e3f565b9750611ea783611e57565b925050600181019050611e88565b5085935050505092915050565b60006020820190508181036000830152611edc8184611e64565b905092915050565b600060208284031215611efa57611ef9611aa4565b5b6000611f0884828501611af7565b91505092915050565b600081519050919050565b600082825260208201905092915050565b60005b83811015611f4b578082015181840152602081019050611f30565b83811115611f5a576000848401525b50505050565b6000611f6b82611f11565b611f758185611f1c565b9350611f85818560208601611f2d565b611f8e81611b16565b840191505092915050565b600060e082019050611fae600083018a611d17565b8181036020830152611fc08189611f60565b90508181036040830152611fd48188611f60565b90508181036060830152611fe88187611f60565b9050611ff76080830186611d17565b61200460a0830185611d9a565b81810360c08301526120168184611f60565b905098975050505050505050565b60008115159050919050565b61203981612024565b82525050565b600061010082019050612055600083018b611d17565b8181036020830152612067818a611f60565b9050818103604083015261207b8189611f60565b905061208a6060830188611d9a565b6120976080830187611d17565b6120a460a0830186612030565b6120b160c0830185611d17565b81810360e08301526120c38184611f60565b90509998505050505050505050565b600060e08201905081810360008301526120ec818a611f60565b905081810360208301526121008189611f60565b905061210f6040830188611d17565b81810360608301526121218187611f60565b90506121306080830186611d17565b81810360a08301526121428185611f60565b905061215160c0830184611d9a565b98975050505050505050565b600060e082019050612172600083018a611d17565b81810360208301526121848189611f60565b905081810360408301526121988188611f60565b90506121a76060830187611d9a565b81810360808301526121b98186611f60565b90506121c860a0830185611d17565b6121d560c0830184612030565b98975050505050505050565b600080600080600060a086880312156121fd576121fc611aa4565b5b600061220b88828901611af7565b955050602086013567ffffffffffffffff81111561222c5761222b611aa9565b5b61223888828901611c24565b945050604086013567ffffffffffffffff81111561225957612258611aa9565b5b61226588828901611c24565b935050606086013567ffffffffffffffff81111561228657612285611aa9565b5b61229288828901611c24565b925050608086013567ffffffffffffffff8111156122b3576122b2611aa9565b5b6122bf88828901611c24565b9150509295509295909350565b7f4f6e6c79204f7267616e697a65722063616e2063726561746520766f74657200600082015250565b6000612302601f83611f1c565b915061230d826122cc565b602082019050919050565b60006020820190508181036000830152612331816122f5565b9050919050565b7f596f75206861766520616c726561647920766f74656400000000000000000000600082015250565b600061236e601683611f1c565b915061237982612338565b602082019050919050565b6000602082019050818103600083015261239d81612361565b9050919050565b7f596f752068617665206e6f20726967687420746f20766f746500000000000000600082015250565b60006123da601983611f1c565b91506123e5826123a4565b602082019050919050565b60006020820190508181036000830152612409816123cd565b9050919050565b7f4e487b7100000000000000000000000000000000000000000000000000000000600052601160045260246000fd5b600061244a82611d0d565b915061245583611d0d565b9250827fffffffffffffffffffffffffffffffffffffffffffffffffffffffffffffffff0382111561248a57612489612410565b5b828201905092915050565b7f4e487b7100000000000000000000000000000000000000000000000000000000600052602260045260246000fd5b600060028204905060018216806124dc57607f821691505b602082108114156124f0576124ef612495565b5b50919050565b7f4f6e6c79204f7267616e697a65722063616e207365742063616e646964617465600082015250565b600061252c602083611f1c565b9150612537826124f6565b602082019050919050565b6000602082019050818103600083015261255b8161251f565b905091905056fea2646970667358221220ffae4395a12f0184871e4a725d3b3d47707cf04d4615648887274b14135f0dff64736f6c63430008090033",
  "linkReferences": {},
  "deployedLinkReferences": {}
}